:020000040800F2
:1000000000040020CF010008750700083D04000827
:100010007107000821030008E70D00080000000038
:100020000000000000000000000000003D0B000880
:100030002503000800000000E9070008D10B0008B4
:10004000EF010008EF010008EF010008EF010008D0
:10005000EF010008EF010008EF010008EF010008C0
:10006000EF010008EF010008EF010008EF010008B0
:10007000EF010008EF010008EF010008EF010008A0
:10008000EF010008EF010008EF010008EF01000890
:10009000EF010008EF010008EF010008EF01000880
:1000A000EF010008EF010008EF010008EF01000870
:1000B000EF010008EF010008EF010008EF01000860
:1000C000EF010008EF010008EF010008EF01000850
:1000D000EF010008D50B0008EF010008EF01000850
:1000E000EF010008EF010008EF010008EF01000830
:1000F000EF010008EF010008EF010008EF01000820
:10010000EF010008EF010008EF010008EF0100080F
:10011000EF010008EF010008EF010008EF010008FF
:10012000EF010008EF010008EF010008EF010008EF
:1001300000F002F800F03AF80AA090E8000C8244BF
:100140008344AAF10107DA4501D100F02FF8AFF29C
:10015000090EBAE80F0013F0010F18BFFB1A43F0A5
:1001600001031847680E0000880E0000103A24BFF3
:1001700078C878C1FAD8520724BF30C830C144BF0C
:1001800004680C607047000000230024002500264E
:10019000103A28BF78C1FBD8520728BF30C148BFEA
:1001A0000B6070471FB51FBD10B510BD00F072F891
:1001B0001146FFF7F7FF00F04DFE00F0A4F803B47E
:1001C000FFF7F2FF03BC00F010FE000070470B4881
:1001D00080470B4981F308880A480047FEE7FEE79D
:1001E000FEE7FEE7FEE7FEE7FEE7FEE7FEE7FEE7E7
:1001F00005480649044A064B70470000CD01000837
:1002000078030020310100087801002078030020E5
:1002100078010020704700000FB4044910B503AA0C
:10022000029800F009F810BC5DF814FB00000020F3
:100230007047704770477047074B70B50D467B4459
:1002400000F011F80446284600F020F810B14FF0F5
:10025000FF3070BD204670BDF70B000001694A1CDD
:1002600002610878704700B58FB0CDE901310021F7
:10027000059105497944CDE903101146684600F01F
:100280002EF80FB000BD0000E5FFFFFF007B00F07F
:1002900080007047754600F03FF8AE46050069469D
:1002A000534620F00700854618B020B5FFF7A0FFA1
:1002B000BDE820404FF000064FF000074FF0000867
:1002C0004FF0000B21F00701AC46ACE8C009ACE8E8
:1002D000C009ACE8C009ACE8C0098D4670472DE9FB
:1002E000F04106460024D6E90170F56880463046A4
:1002F00003E04146B847641C3046A8470028F8D1BF
:100300002046BDE8F08110B50446AFF300802046DA
:10031000BDE81040FFF753BF0048704714010020AC
:1003200000BFFEE770472DE9F04102460025002698
:10033000002000230024002791F803C00CF00F05D3
:1003400091F803C00CF0100CBCF1000F03D091F831
:1003500002C04CEA050591F800C0BCF1000F31D095
:10036000146800202BE04FF0010C0CFA00F3B1F8F8
:1003700000C00CEA03069E4220D183004FF00F0C10
:100380000CFA03F7BC4305FA03FC4CEA040491F8A9
:1003900003C0BCF1280F06D14FF0010C0CFA00FC91
:1003A000C2F814C00AE091F803C0BCF1480F05D1AF
:1003B0004FF0010C0CFA00FCC2F810C0401C0828D9
:1003C000D1D31460B1F800C0BCF1FF0F34DD546824
:1003D00000202EE000F1080C4FF0010808FA0CF3A1
:1003E000B1F800C00CEA03069E4221D183004FF011
:1003F0000F0C0CFA03F7BC4305FA03FC4CEA0404A7
:1004000091F803C0BCF1280F05D100F1080C08FADF
:100410000CF8C2F8148091F803C0BCF1480F07D162
:1004200000F1080C4FF0010808FA0CF8C2F810802F
:10043000401C0828CED35460BDE8F08100BFFEE721
:1004400001464906084A926942F00102064B9A6148
:10045000064A526822F0E062044B5A601A4652681B
:100460000A435A607047000000100240000001403B
:1004700001202949086000BF00BF00BF00BF00BFC6
:1004800000BF00BF00BF00BF00BF00BF00BF00BF74
:1004900000BF00BF00BF00BF00BF00BF00BF002003
:1004A0001E49C1F8B40100BF00BF00BF00BF00BFBC
:1004B00000BF00BF00BF00BF00BF00BF00BF00BF44
:1004C00000BF00BF00BF00BF00BF00BF00BF00BF34
:1004D00000BF00BF00BF00BF00BF00BF00BF00BF24
:1004E00000BF00BF00BF00BF00BF00BF00BF00BF14
:1004F00000BF00BF00BF00BF00BF00BF00BF00BF04
:1005000000BF00BF00BF00BF00BF00BF00BF00BFF3
:1005100000BF00BF70470000B40122420000224229
:1005200001202949086000BF00BF00BF00BF00BF15
:1005300000BF00BF00BF00BF00BF00BF00BF00BFC3
:1005400000BF00BF00BF00BF00BF00BF00BF00BFB3
:1005500000BF00BF00BF00BF00BF00BF00BF00BFA3
:1005600000BF00BF00BF00BF00BF00BF00BF00BF93
:1005700000BF00BF00BF00BF00BF00BF00BF00BF83
:1005800000BF00BF00BF00BF00BF00BF00BF00BF73
:1005900000BF00BF00200D49C1F8B40100BF00BF7B
:1005A00000BF00BF00BF00BF00BF00BF00BF00BF53
:1005B00000BF00BF00BF00BF00BF00BF00BF00BF43
:1005C00000BF00BF70470000B40122420000224279
:1005D00070B50546002451E02C48005D00F0800015
:1005E00010B9FFF745FF01E0FFF79AFF2748005DCC
:1005F00000F0400010B9FFF73BFF01E0FFF790FF6C
:100600002248005D00F0200010B9FFF731FF01E043
:10061000FFF786FF1D48005D00F0100010B9FFF7DE
:1006200027FF01E0FFF77CFF1848005D00F008009D
:1006300010B9FFF71DFF01E0FFF772FF1348005DDF
:1006400000F0040010B9FFF713FF01E0FFF768FFA7
:100650000E48005D00F0020010B9FFF709FF01E04D
:10066000FFF75EFF0948005D00F0010010B9FFF7D9
:10067000FFFE01E0FFF754FF601CC4B205EB45002C
:10068000A042A9DC00F004F870BD0000E4000020E6
:1006900010B5002002490860422000F0BFFB10BDE9
:1006A000B401224230B5441E04EB4404064D2A55E1
:1006B000441E04EB4404641C2955441E04EB44040A
:1006C000A41C2B5530BD0000E400002000B5002024
:1006D00015490861C8601420486100208861C8611C
:1006E0000846006840F001000860084640680F496D
:1006F00008400D494860084600680D4908400A490D
:1007000008600846006820F48020086008464068B9
:1007100020F4FE0048600020886000214FF0006057
:1007200000F01CF800BD0000001002400000FFF8BF
:10073000FFFFF6FE0146072323EA01021202054BE2
:1007400018684FF6FF031840034B18431043014B42
:10075000186070470CED00E00000FA05024A0A40FC
:100760000243024B1A60704780FFFF1F08ED00E054
:1007700000BFFEE77047000070B5002100230F2284
:10078000C47804B3154C246804F4E064C4F5E06450
:10079000210AC1F10403CA40447804FA03F18478C1
:1007A0001440214309010E4C0678A155047804F049
:1007B0001F050124AC4005786D11AD0005F1E02561
:1007C000C5F8004109E0047804F01F050124AC409D
:1007D000044D0678761145F8264070BD0CED00E01A
:1007E00000E400E080E100E07047000029B1064A23
:1007F00092690243044B9A6104E0034A926982437E
:10080000014B9A61704700000010024030B5002192
:100810000022002400232D4D6D6805F00C0121B14C
:10082000042905D0082923D105E0294D056022E0DF
:10083000274D05601FE0254D6D6805F47012234DAE
:100840006D6805F48034022505EB92421CB9214DF8
:10085000554305600BE01D4D6D6805F400351DB175
:100860001C4D5543056002E0194D5543056002E0FB
:10087000174D056000BF00BF144D6D6805F0F00115
:100880000909154D6B5C0568DD4045600F4D6D68CD
:1008900005F4E061090A104D6B5C4568DD40856038
:1008A0000A4D6D6805F46051C90A0B4D6B5C4568D3
:1008B000DD40C560054D6D6805F44041890B074D6D
:1008C0006B5CC568B5FBF3F5056130BD00100240F7
:1008D00000127A0000093D000600002016000020EA
:1008E00001202949086000BF00BF00BF00BF00BF52
:1008F00000BF00BF00BF00BF00BF00BF00BF00BF00
:1009000000BF00BF00BF00BF00BF00BF00BF00208E
:100910001E49C1F8B80100BF00BF00BF00BF00BF43
:1009200000BF00BF00BF00BF00BF00BF00BF00BFCF
:1009300000BF00BF00BF00BF00BF00BF00BF00BFBF
:1009400000BF00BF00BF00BF00BF00BF00BF00BFAF
:1009500000BF00BF00BF00BF00BF00BF00BF00BF9F
:1009600000BF00BF00BF00BF00BF00BF00BF00BF8F
:1009700000BF00BF00BF00BF00BF00BF00BF00BF7F
:1009800000BF00BF70470000B801224200002242B1
:1009900001202949086000BF00BF00BF00BF00BFA1
:1009A00000BF00BF00BF00BF00BF00BF00BF00BF4F
:1009B00000BF00BF00BF00BF00BF00BF00BF00BF3F
:1009C00000BF00BF00BF00BF00BF00BF00BF00BF2F
:1009D00000BF00BF00BF00BF00BF00BF00BF00BF1F
:1009E00000BF00BF00BF00BF00BF00BF00BF00BF0F
:1009F00000BF00BF00BF00BF00BF00BF00BF00BFFF
:100A000000BF00BF00200D49C1F8B80100BF00BF02
:100A100000BF00BF00BF00BF00BF00BF00BF00BFDE
:100A200000BF00BF00BF00BF00BF00BF00BF00BFCE
:100A300000BF00BF70470000B80122420000224200
:100A400070B50546002451E02C48005D00F08000A0
:100A500010B9FFF745FF01E0FFF79AFF2748005D57
:100A600000F0400010B9FFF73BFF01E0FFF790FFF7
:100A70002248005D00F0200010B9FFF731FF01E0CF
:100A8000FFF786FF1D48005D00F0100010B9FFF76A
:100A900027FF01E0FFF77CFF1848005D00F0080029
:100AA00010B9FFF71DFF01E0FFF772FF1348005D6B
:100AB00000F0040010B9FFF713FF01E0FFF768FF33
:100AC0000E48005D00F0020010B9FFF709FF01E0D9
:100AD000FFF75EFF0948005D00F0010010B9FFF765
:100AE000FFFE01E0FFF754FF601CC4B205EB4500B8
:100AF000A042A9DC00F004F870BD0000FC0000205A
:100B000010B5002002490860422000F087F910BDAE
:100B1000B801224230B5441E04EB4404064D2A5568
:100B2000441E04EB4404641C2955441E04EB440495
:100B3000A41C2B5530BD0000FC00002070470000B5
:100B400030B504460025FFF7C1FD1F48006840F49A
:100B500080301D49086000BF1B480068400C002819
:100B6000FAD04FF4806018494860A01EC4B208460D
:100B7000406840EA844048600846406840F480305D
:100B800048601248006840F03200104908600E4882
:100B9000006840F080700C49086000BF0A48006897
:100BA000400E0028FAD00848406840F0020006498C
:100BB000486005E004484068C0F3870505F0030578
:100BC000022DF7D130BD000000100240002002408D
:100BD0007047000010B540F22551144800F043F86A
:100BE000F0B1124800F0FAF8C4B21148114909787E
:100BF00044540078482805D10E480078401C0D491F
:100C0000087002E000200B4908700A4800780528A7
:100C100006D1074800794F2802D101200649087003
:100C20002021024800F00AF810BD00000038014001
:100C30001C000020050000200400002001F40072C8
:100C4000B2F5007F00D100BFCA430280704721B1D6
:100C5000828942F40052828104E082894DF6FF735A
:100C60001A408281704770B5024600240023002597
:100C7000002040F66A16B14200D100BFC1F3421510
:100C800001F01F03012606FA03F3012D02D1968914
:100C9000334006E0022D02D1168A334001E0968AE5
:100CA00033400C12012606FA04F41688344013B1BE
:100CB0000CB1012000E0002070BDF0B50346002417
:100CC00000260025002040F66A17B94200D100BF77
:100CD0001846C1F3421401F01F06012707FA06F572
:100CE000012C01D10C3004E0022C01D1103000E0C5
:100CF00014301AB107682F43076002E00768AF435A
:100D00000760F0BD2DE9F04786B005460E46002489
:100D1000A24600BFA1460027B08900B100BF2F4600
:100D20002C8A4CF6FF700440F08804432C82AC8976
:100D30004EF6F3100440B0883189084371890843A6
:100D40000443AC81AC8A4FF6FF400440B0890443B1
:100D5000AC8201A8FFF75AFD1F48874202D1DDF897
:100D600010A001E0DDF80CA0A88900F4004040B11B
:100D70000AEBCA0000EB0A1031684900B0FBF1F839
:100D800007E00AEBCA0000EB0A1031688900B0FBEB
:100D9000F1F86420B8FBF0F004012009642101FBA4
:100DA0001089A88900F4004040B1322000EBC9004E
:100DB000B0FBF1F000F00700044308E0322000EB44
:100DC00009106421B0FBF1F000F00F0004432C8106
:100DD00006B0BDE8F0870000003801400146888871
:100DE000C0F30800704700BFFEE7014600BF704730
:100DF00008B501211020FFF7F9FC4FF4C040ADF811
:100E0000000010208DF8030003208DF802006946D1
:100E10000148FFF788FA08BD0010014006E00821EC
:100E200000BF0A1EA1F1010399B2FAD1021EA0F17E
:100E3000010398B2F3D1704700BF054A128802F04F
:100E40004002002AF9D0C2B2014B1B1D1A80704724
:100E5000003801400920FFF773FE0220FFF76AFC0B
:100E60004FF4E13000F062F80220FFF7E9FA0120C8
:100E7000FFF7E6FAFFF7BCFF29A0FFF7CDF94DE039
:100E8000FF231A4619460120FFF70CFCFF231A46E0
:100E900019460220FFF706FCFF231A4619460320D5
:100EA000FFF700FCFF231A4619460420FFF7FAFB60
:100EB000FF231A4619460520FFF7F4FBFF231A46C5
:100EC00019460620FFF7EEFB0620FFF781FBFF2304
:100ED0001A4619460120FFF71DFEFF231A46194640
:100EE0000220FFF717FEFF231A4619460320FFF7DB
:100EF00011FEFF231A4619460420FFF70BFEFF23BD
:100F00001A4619460520FFF705FEFF231A46194623
:100F10000620FFF7FFFD0620FFF792FDB0E7000077
:100F2000515354C7E0C8ED0D0A00000010B586B05B
:100F30000446012144F20400FFF758FC4FF400700E
:100F4000ADF8140003208DF8160018208DF8170056
:100F500005A91C48FFF7E7F94FF48060ADF81400CD
:100F600004208DF8170005A91648FFF7DCF92520A5
:100F70008DF8000003208DF801008DF8020001209B
:100F80008DF803006846FFF7F7FB01940020ADF8E9
:100F90000800ADF80A00ADF80C00ADF810000C2008
:100FA000ADF80E0001A90848FFF7ACFE012240F29F
:100FB00025510548FFF781FE01210348FFF747FE51
:100FC00006B010BD0008014000380140EC0F0008D9
:100FD000000000201C0000006C0100080810000840
:100FE0001C0000205C0300008801000800000000D5
:100FF00000000000000001020304010203040607D0
:081000000809020406080000C3
:04000005080001CF1F
:00000001FF
